{
  "_format": "hh-sol-artifact-1",
  "contractName": "DeTiX",
  "sourceName": "contracts/DeTiX.sol",
  "abi": [
    {
      "inputs": [],
      "stateMutability": "nonpayable",
      "type": "constructor"
    },
    {
      "inputs": [
        {
          "internalType": "address",
          "name": "sender",
          "type": "address"
        },
        {
          "internalType": "uint256",
          "name": "tokenId",
          "type": "uint256"
        },
        {
          "internalType": "address",
          "name": "owner",
          "type": "address"
        }
      ],
      "name": "ERC721IncorrectOwner",
      "type": "error"
    },
    {
      "inputs": [
        {
          "internalType": "address",
          "name": "operator",
          "type": "address"
        },
        {
          "internalType": "uint256",
          "name": "tokenId",
          "type": "uint256"
        }
      ],
      "name": "ERC721InsufficientApproval",
      "type": "error"
    },
    {
      "inputs": [
        {
          "internalType": "address",
          "name": "approver",
          "type": "address"
        }
      ],
      "name": "ERC721InvalidApprover",
      "type": "error"
    },
    {
      "inputs": [
        {
          "internalType": "address",
          "name": "operator",
          "type": "address"
        }
      ],
      "name": "ERC721InvalidOperator",
      "type": "error"
    },
    {
      "inputs": [
        {
          "internalType": "address",
          "name": "owner",
          "type": "address"
        }
      ],
      "name": "ERC721InvalidOwner",
      "type": "error"
    },
    {
      "inputs": [
        {
          "internalType": "address",
          "name": "receiver",
          "type": "address"
        }
      ],
      "name": "ERC721InvalidReceiver",
      "type": "error"
    },
    {
      "inputs": [
        {
          "internalType": "address",
          "name": "sender",
          "type": "address"
        }
      ],
      "name": "ERC721InvalidSender",
      "type": "error"
    },
    {
      "inputs": [
        {
          "internalType": "uint256",
          "name": "tokenId",
          "type": "uint256"
        }
      ],
      "name": "ERC721NonexistentToken",
      "type": "error"
    },
    {
      "inputs": [
        {
          "internalType": "address",
          "name": "owner",
          "type": "address"
        }
      ],
      "name": "OwnableInvalidOwner",
      "type": "error"
    },
    {
      "inputs": [
        {
          "internalType": "address",
          "name": "account",
          "type": "address"
        }
      ],
      "name": "OwnableUnauthorizedAccount",
      "type": "error"
    },
    {
      "anonymous": false,
      "inputs": [
        {
          "indexed": true,
          "internalType": "address",
          "name": "owner",
          "type": "address"
        },
        {
          "indexed": true,
          "internalType": "address",
          "name": "approved",
          "type": "address"
        },
        {
          "indexed": true,
          "internalType": "uint256",
          "name": "tokenId",
          "type": "uint256"
        }
      ],
      "name": "Approval",
      "type": "event"
    },
    {
      "anonymous": false,
      "inputs": [
        {
          "indexed": true,
          "internalType": "address",
          "name": "owner",
          "type": "address"
        },
        {
          "indexed": true,
          "internalType": "address",
          "name": "operator",
          "type": "address"
        },
        {
          "indexed": false,
          "internalType": "bool",
          "name": "approved",
          "type": "bool"
        }
      ],
      "name": "ApprovalForAll",
      "type": "event"
    },
    {
      "anonymous": false,
      "inputs": [
        {
          "indexed": false,
          "internalType": "uint256",
          "name": "_fromTokenId",
          "type": "uint256"
        },
        {
          "indexed": false,
          "internalType": "uint256",
          "name": "_toTokenId",
          "type": "uint256"
        }
      ],
      "name": "BatchMetadataUpdate",
      "type": "event"
    },
    {
      "anonymous": false,
      "inputs": [
        {
          "indexed": false,
          "internalType": "uint256",
          "name": "_tokenId",
          "type": "uint256"
        }
      ],
      "name": "MetadataUpdate",
      "type": "event"
    },
    {
      "anonymous": false,
      "inputs": [
        {
          "indexed": true,
          "internalType": "address",
          "name": "previousOwner",
          "type": "address"
        },
        {
          "indexed": true,
          "internalType": "address",
          "name": "newOwner",
          "type": "address"
        }
      ],
      "name": "OwnershipTransferred",
      "type": "event"
    },
    {
      "anonymous": false,
      "inputs": [
        {
          "indexed": true,
          "internalType": "uint256",
          "name": "tokenId",
          "type": "uint256"
        },
        {
          "indexed": false,
          "internalType": "address",
          "name": "seller",
          "type": "address"
        },
        {
          "indexed": false,
          "internalType": "address",
          "name": "owner",
          "type": "address"
        },
        {
          "indexed": false,
          "internalType": "uint256",
          "name": "price",
          "type": "uint256"
        },
        {
          "indexed": false,
          "internalType": "bool",
          "name": "sold",
          "type": "bool"
        }
      ],
      "name": "TicketCreated",
      "type": "event"
    },
    {
      "anonymous": false,
      "inputs": [
        {
          "indexed": true,
          "internalType": "address",
          "name": "from",
          "type": "address"
        },
        {
          "indexed": true,
          "internalType": "address",
          "name": "to",
          "type": "address"
        },
        {
          "indexed": true,
          "internalType": "uint256",
          "name": "tokenId",
          "type": "uint256"
        }
      ],
      "name": "Transfer",
      "type": "event"
    },
    {
      "inputs": [
        {
          "internalType": "address",
          "name": "to",
          "type": "address"
        },
        {
          "internalType": "uint256",
          "name": "tokenId",
          "type": "uint256"
        }
      ],
      "name": "approve",
      "outputs": [],
      "stateMutability": "nonpayable",
      "type": "function"
    },
    {
      "inputs": [
        {
          "internalType": "address",
          "name": "owner",
          "type": "address"
        }
      ],
      "name": "balanceOf",
      "outputs": [
        {
          "internalType": "uint256",
          "name": "",
          "type": "uint256"
        }
      ],
      "stateMutability": "view",
      "type": "function"
    },
    {
      "inputs": [
        {
          "internalType": "string",
          "name": "tokenURI",
          "type": "string"
        },
        {
          "internalType": "uint256",
          "name": "price",
          "type": "uint256"
        },
        {
          "internalType": "uint256",
          "name": "supply",
          "type": "uint256"
        }
      ],
      "name": "createEventTickets",
      "outputs": [],
      "stateMutability": "payable",
      "type": "function"
    },
    {
      "inputs": [
        {
          "internalType": "uint256",
          "name": "tokenId",
          "type": "uint256"
        }
      ],
      "name": "createMarketSale",
      "outputs": [],
      "stateMutability": "payable",
      "type": "function"
    },
    {
      "inputs": [
        {
          "internalType": "string",
          "name": "tokenURI",
          "type": "string"
        },
        {
          "internalType": "uint256",
          "name": "price",
          "type": "uint256"
        }
      ],
      "name": "createTicket",
      "outputs": [
        {
          "internalType": "uint256",
          "name": "",
          "type": "uint256"
        }
      ],
      "stateMutability": "payable",
      "type": "function"
    },
    {
      "inputs": [],
      "name": "fetchItemsListed",
      "outputs": [
        {
          "components": [
            {
              "internalType": "uint256",
              "name": "tokenId",
              "type": "uint256"
            },
            {
              "internalType": "address payable",
              "name": "seller",
              "type": "address"
            },
            {
              "internalType": "address payable",
              "name": "owner",
              "type": "address"
            },
            {
              "internalType": "uint256",
              "name": "price",
              "type": "uint256"
            },
            {
              "internalType": "bool",
              "name": "sold",
              "type": "bool"
            }
          ],
          "internalType": "struct DeTiX.Ticket[]",
          "name": "",
          "type": "tuple[]"
        }
      ],
      "stateMutability": "view",
      "type": "function"
    },
    {
      "inputs": [],
      "name": "fetchMarketItems",
      "outputs": [
        {
          "components": [
            {
              "internalType": "uint256",
              "name": "tokenId",
              "type": "uint256"
            },
            {
              "internalType": "address payable",
              "name": "seller",
              "type": "address"
            },
            {
              "internalType": "address payable",
              "name": "owner",
              "type": "address"
            },
            {
              "internalType": "uint256",
              "name": "price",
              "type": "uint256"
            },
            {
              "internalType": "bool",
              "name": "sold",
              "type": "bool"
            }
          ],
          "internalType": "struct DeTiX.Ticket[]",
          "name": "",
          "type": "tuple[]"
        }
      ],
      "stateMutability": "view",
      "type": "function"
    },
    {
      "inputs": [],
      "name": "fetchMyNFTs",
      "outputs": [
        {
          "components": [
            {
              "internalType": "uint256",
              "name": "tokenId",
              "type": "uint256"
            },
            {
              "internalType": "address payable",
              "name": "seller",
              "type": "address"
            },
            {
              "internalType": "address payable",
              "name": "owner",
              "type": "address"
            },
            {
              "internalType": "uint256",
              "name": "price",
              "type": "uint256"
            },
            {
              "internalType": "bool",
              "name": "sold",
              "type": "bool"
            }
          ],
          "internalType": "struct DeTiX.Ticket[]",
          "name": "",
          "type": "tuple[]"
        }
      ],
      "stateMutability": "view",
      "type": "function"
    },
    {
      "inputs": [
        {
          "internalType": "uint256",
          "name": "tokenId",
          "type": "uint256"
        }
      ],
      "name": "getApproved",
      "outputs": [
        {
          "internalType": "address",
          "name": "",
          "type": "address"
        }
      ],
      "stateMutability": "view",
      "type": "function"
    },
    {
      "inputs": [],
      "name": "getListingPrice",
      "outputs": [
        {
          "internalType": "uint256",
          "name": "",
          "type": "uint256"
        }
      ],
      "stateMutability": "view",
      "type": "function"
    },
    {
      "inputs": [
        {
          "internalType": "address",
          "name": "owner",
          "type": "address"
        },
        {
          "internalType": "address",
          "name": "operator",
          "type": "address"
        }
      ],
      "name": "isApprovedForAll",
      "outputs": [
        {
          "internalType": "bool",
          "name": "",
          "type": "bool"
        }
      ],
      "stateMutability": "view",
      "type": "function"
    },
    {
      "inputs": [],
      "name": "name",
      "outputs": [
        {
          "internalType": "string",
          "name": "",
          "type": "string"
        }
      ],
      "stateMutability": "view",
      "type": "function"
    },
    {
      "inputs": [],
      "name": "owner",
      "outputs": [
        {
          "internalType": "address",
          "name": "",
          "type": "address"
        }
      ],
      "stateMutability": "view",
      "type": "function"
    },
    {
      "inputs": [
        {
          "internalType": "uint256",
          "name": "tokenId",
          "type": "uint256"
        }
      ],
      "name": "ownerOf",
      "outputs": [
        {
          "internalType": "address",
          "name": "",
          "type": "address"
        }
      ],
      "stateMutability": "view",
      "type": "function"
    },
    {
      "inputs": [],
      "name": "renounceOwnership",
      "outputs": [],
      "stateMutability": "nonpayable",
      "type": "function"
    },
    {
      "inputs": [
        {
          "internalType": "uint256",
          "name": "tokenId",
          "type": "uint256"
        },
        {
          "internalType": "uint256",
          "name": "price",
          "type": "uint256"
        }
      ],
      "name": "resellTicket",
      "outputs": [],
      "stateMutability": "payable",
      "type": "function"
    },
    {
      "inputs": [
        {
          "internalType": "address",
          "name": "from",
          "type": "address"
        },
        {
          "internalType": "address",
          "name": "to",
          "type": "address"
        },
        {
          "internalType": "uint256",
          "name": "tokenId",
          "type": "uint256"
        }
      ],
      "name": "safeTransferFrom",
      "outputs": [],
      "stateMutability": "nonpayable",
      "type": "function"
    },
    {
      "inputs": [
        {
          "internalType": "address",
          "name": "from",
          "type": "address"
        },
        {
          "internalType": "address",
          "name": "to",
          "type": "address"
        },
        {
          "internalType": "uint256",
          "name": "tokenId",
          "type": "uint256"
        },
        {
          "internalType": "bytes",
          "name": "data",
          "type": "bytes"
        }
      ],
      "name": "safeTransferFrom",
      "outputs": [],
      "stateMutability": "nonpayable",
      "type": "function"
    },
    {
      "inputs": [
        {
          "internalType": "address",
          "name": "operator",
          "type": "address"
        },
        {
          "internalType": "bool",
          "name": "approved",
          "type": "bool"
        }
      ],
      "name": "setApprovalForAll",
      "outputs": [],
      "stateMutability": "nonpayable",
      "type": "function"
    },
    {
      "inputs": [
        {
          "internalType": "bytes4",
          "name": "interfaceId",
          "type": "bytes4"
        }
      ],
      "name": "supportsInterface",
      "outputs": [
        {
          "internalType": "bool",
          "name": "",
          "type": "bool"
        }
      ],
      "stateMutability": "view",
      "type": "function"
    },
    {
      "inputs": [],
      "name": "symbol",
      "outputs": [
        {
          "internalType": "string",
          "name": "",
          "type": "string"
        }
      ],
      "stateMutability": "view",
      "type": "function"
    },
    {
      "inputs": [
        {
          "internalType": "uint256",
          "name": "tokenId",
          "type": "uint256"
        }
      ],
      "name": "tokenURI",
      "outputs": [
        {
          "internalType": "string",
          "name": "",
          "type": "string"
        }
      ],
      "stateMutability": "view",
      "type": "function"
    },
    {
      "inputs": [
        {
          "internalType": "address",
          "name": "from",
          "type": "address"
        },
        {
          "internalType": "address",
          "name": "to",
          "type": "address"
        },
        {
          "internalType": "uint256",
          "name": "tokenId",
          "type": "uint256"
        }
      ],
      "name": "transferFrom",
      "outputs": [],
      "stateMutability": "nonpayable",
      "type": "function"
    },
    {
      "inputs": [
        {
          "internalType": "address",
          "name": "newOwner",
          "type": "address"
        }
      ],
      "name": "transferOwnership",
      "outputs": [],
      "stateMutability": "nonpayable",
      "type": "function"
    },
    {
      "inputs": [
        {
          "internalType": "uint256",
          "name": "_listingPrice",
          "type": "uint256"
        }
      ],
      "name": "updateListingPrice",
      "outputs": [],
      "stateMutability": "payable",
      "type": "function"
    }
  ],
  "bytecode": "0x60806040526509184e72a000600a553480156200001b57600080fd5b50336040518060400160405280600d81526020017f4465546958205469636b657473000000000000000000000000000000000000008152506040518060400160405280600581526020017f444554495800000000000000000000000000000000000000000000000000000081525081600090816200009a91906200047c565b508060019081620000ac91906200047c565b505050600073ffffffffffffffffffffffffffffffffffffffff168173ffffffffffffffffffffffffffffffffffffffff1603620001245760006040517f1e4fbdf70000000000000000000000000000000000000000000000000000000081526004016200011b9190620005a8565b60405180910390fd5b62000135816200013c60201b60201c565b50620005c5565b6000600760009054906101000a900473ffffffffffffffffffffffffffffffffffffffff16905081600760006101000a81548173ffffffffffffffffffffffffffffffffffffffff021916908373ffffffffffffffffffffffffffffffffffffffff1602179055508173ffffffffffffffffffffffffffffffffffffffff168173ffffffffffffffffffffffffffffffffffffffff167f8be0079c531659141344cd1fd0a4f28419497f9722a3daafe3b4186f6b6457e060405160405180910390a35050565b600081519050919050565b7f4e487b7100000000000000000000000000000000000000000000000000000000600052604160045260246000fd5b7f4e487b7100000000000000000000000000000000000000000000000000000000600052602260045260246000fd5b600060028204905060018216806200028457607f821691505b6020821081036200029a57620002996200023c565b5b50919050565b60008190508160005260206000209050919050565b60006020601f8301049050919050565b600082821b905092915050565b600060088302620003047fffffffffffffffffffffffffffffffffffffffffffffffffffffffffffffffff82620002c5565b620003108683620002c5565b95508019841693508086168417925050509392505050565b6000819050919050565b6000819050919050565b60006200035d62000357620003518462000328565b62000332565b62000328565b9050919050565b6000819050919050565b62000379836200033c565b62000391620003888262000364565b848454620002d2565b825550505050565b600090565b620003a862000399565b620003b58184846200036e565b505050565b5b81811015620003dd57620003d16000826200039e565b600181019050620003bb565b5050565b601f8211156200042c57620003f681620002a0565b6200040184620002b5565b8101602085101562000411578190505b620004296200042085620002b5565b830182620003ba565b50505b505050565b600082821c905092915050565b6000620004516000198460080262000431565b1980831691505092915050565b60006200046c83836200043e565b9150826002028217905092915050565b620004878262000202565b67ffffffffffffffff811115620004a357620004a26200020d565b5b620004af82546200026b565b620004bc828285620003e1565b600060209050601f831160018114620004f45760008415620004df578287015190505b620004eb85826200045e565b8655506200055b565b601f1984166200050486620002a0565b60005b828110156200052e5784890151825560018201915060208501945060208101905062000507565b868310156200054e57848901516200054a601f8916826200043e565b8355505b6001600288020188555050505b505050505050565b600073ffffffffffffffffffffffffffffffffffffffff82169050919050565b6000620005908262000563565b9050919050565b620005a28162000583565b82525050565b6000602082019050620005bf600083018462000597565b92915050565b613fba80620005d56000396000f3fe6080604052600436106101665760003560e01c80636352211e116100d1578063a22cb4651161008a578063be9af53611610064578063be9af536146104f4578063c87b56dd14610510578063e985e9c51461054d578063f2fde38b1461058a57610166565b8063a22cb46514610486578063ae677aa3146104af578063b88d4fde146104cb57610166565b80636352211e1461036f57806370a08231146103ac578063715018a6146103e95780638729004f146104005780638da5cb5b1461043057806395d89b411461045b57610166565b8063202e374011610123578063202e37401461028f57806323b872dd146102ba5780632cc50639146102e3578063348e9913146102ff57806342842e0e1461031b57806345f8fa801461034457610166565b806301ffc9a71461016b57806306fdde03146101a8578063081812fc146101d3578063095ea7b3146102105780630f08efe01461023957806312e8558514610264575b600080fd5b34801561017757600080fd5b50610192600480360381019061018d9190612df0565b6105b3565b60405161019f9190612e38565b60405180910390f35b3480156101b457600080fd5b506101bd610614565b6040516101ca9190612ee3565b60405180910390f35b3480156101df57600080fd5b506101fa60048036038101906101f59190612f3b565b6106a6565b6040516102079190612fa9565b60405180910390f35b34801561021c57600080fd5b5061023760048036038101906102329190612ff0565b6106c2565b005b34801561024557600080fd5b5061024e6106d8565b60405161025b9190613186565b60405180910390f35b34801561027057600080fd5b5061027961092b565b60405161028691906131b7565b60405180910390f35b34801561029b57600080fd5b506102a4610935565b6040516102b19190613186565b60405180910390f35b3480156102c657600080fd5b506102e160048036038101906102dc91906131d2565b610c1a565b005b6102fd60048036038101906102f8919061335a565b610d1c565b005b610319600480360381019061031491906133c9565b610d9a565b005b34801561032757600080fd5b50610342600480360381019061033d91906131d2565b610f9d565b005b34801561035057600080fd5b50610359610fbd565b6040516103669190613186565b60405180910390f35b34801561037b57600080fd5b5061039660048036038101906103919190612f3b565b6112a2565b6040516103a39190612fa9565b60405180910390f35b3480156103b857600080fd5b506103d360048036038101906103ce9190613409565b6112b4565b6040516103e091906131b7565b60405180910390f35b3480156103f557600080fd5b506103fe61136e565b005b61041a60048036038101906104159190613436565b611382565b60405161042791906131b7565b60405180910390f35b34801561043c57600080fd5b5061044561141c565b6040516104529190612fa9565b60405180910390f35b34801561046757600080fd5b50610470611446565b60405161047d9190612ee3565b60405180910390f35b34801561049257600080fd5b506104ad60048036038101906104a891906134be565b6114d8565b005b6104c960048036038101906104c49190612f3b565b6114ee565b005b3480156104d757600080fd5b506104f260048036038101906104ed919061359f565b611500565b005b61050e60048036038101906105099190612f3b565b611525565b005b34801561051c57600080fd5b5061053760048036038101906105329190612f3b565b611756565b6040516105449190612ee3565b60405180910390f35b34801561055957600080fd5b50610574600480360381019061056f9190613622565b611869565b6040516105819190612e38565b60405180910390f35b34801561059657600080fd5b506105b160048036038101906105ac9190613409565b6118fd565b005b6000634906490660e01b7bffffffffffffffffffffffffffffffffffffffffffffffffffffffff1916827bffffffffffffffffffffffffffffffffffffffffffffffffffffffff1916148061060d575061060c82611983565b5b9050919050565b60606000805461062390613691565b80601f016020809104026020016040519081016040528092919081815260200182805461064f90613691565b801561069c5780601f106106715761010080835404028352916020019161069c565b820191906000526020600020905b81548152906001019060200180831161067f57829003601f168201915b5050505050905090565b60006106b182611a65565b506106bb82611aed565b9050919050565b6106d482826106cf611b2a565b611b32565b5050565b60606000600854905060006009546008546106f391906136f1565b90506000808267ffffffffffffffff8111156107125761071161322f565b5b60405190808252806020026020018201604052801561074b57816020015b610738612d27565b8152602001906001900390816107305790505b50905060005b84811015610920573073ffffffffffffffffffffffffffffffffffffffff16600b60006001846107819190613725565b815260200190815260200160002060020160009054906101000a900473ffffffffffffffffffffffffffffffffffffffff1673ffffffffffffffffffffffffffffffffffffffff160361090d5760006001826107dd9190613725565b90506000600b60008381526020019081526020016000209050806040518060a0016040529081600082015481526020016001820160009054906101000a900473ffffffffffffffffffffffffffffffffffffffff1673ffffffffffffffffffffffffffffffffffffffff1673ffffffffffffffffffffffffffffffffffffffff1681526020016002820160009054906101000a900473ffffffffffffffffffffffffffffffffffffffff1673ffffffffffffffffffffffffffffffffffffffff1673ffffffffffffffffffffffffffffffffffffffff168152602001600382015481526020016004820160009054906101000a900460ff1615151515815250508486815181106108f0576108ef613759565b5b60200260200101819052506001856109089190613725565b945050505b808061091890613788565b915050610751565b508094505050505090565b6000600a54905090565b60606000600854905060008060005b838110156109e4573373ffffffffffffffffffffffffffffffffffffffff16600b60006001846109749190613725565b815260200190815260200160002060020160009054906101000a900473ffffffffffffffffffffffffffffffffffffffff1673ffffffffffffffffffffffffffffffffffffffff16036109d1576001836109ce9190613725565b92505b80806109dc90613788565b915050610944565b5060008267ffffffffffffffff811115610a0157610a0061322f565b5b604051908082528060200260200182016040528015610a3a57816020015b610a27612d27565b815260200190600190039081610a1f5790505b50905060005b84811015610c0f573373ffffffffffffffffffffffffffffffffffffffff16600b6000600184610a709190613725565b815260200190815260200160002060020160009054906101000a900473ffffffffffffffffffffffffffffffffffffffff1673ffffffffffffffffffffffffffffffffffffffff1603610bfc576000600182610acc9190613725565b90506000600b60008381526020019081526020016000209050806040518060a0016040529081600082015481526020016001820160009054906101000a900473ffffffffffffffffffffffffffffffffffffffff1673ffffffffffffffffffffffffffffffffffffffff1673ffffffffffffffffffffffffffffffffffffffff1681526020016002820160009054906101000a900473ffffffffffffffffffffffffffffffffffffffff1673ffffffffffffffffffffffffffffffffffffffff1673ffffffffffffffffffffffffffffffffffffffff168152602001600382015481526020016004820160009054906101000a900460ff161515151581525050848681518110610bdf57610bde613759565b5b6020026020010181905250600185610bf79190613725565b945050505b8080610c0790613788565b915050610a40565b508094505050505090565b600073ffffffffffffffffffffffffffffffffffffffff168273ffffffffffffffffffffffffffffffffffffffff1603610c8c5760006040517f64a0ae92000000000000000000000000000000000000000000000000000000008152600401610c839190612fa9565b60405180910390fd5b6000610ca08383610c9b611b2a565b611b44565b90508373ffffffffffffffffffffffffffffffffffffffff168173ffffffffffffffffffffffffffffffffffffffff1614610d16578382826040517f64283d7b000000000000000000000000000000000000000000000000000000008152600401610d0d939291906137d0565b60405180910390fd5b50505050565b80600a54610d2a9190613807565b3414610d6b576040517f08c379a0000000000000000000000000000000000000000000000000000000008152600401610d62906138bb565b60405180910390fd5b60005b81811015610d9457610d808484611d5e565b508080610d8c90613788565b915050610d6e565b50505050565b3373ffffffffffffffffffffffffffffffffffffffff16600b600084815260200190815260200160002060020160009054906101000a900473ffffffffffffffffffffffffffffffffffffffff1673ffffffffffffffffffffffffffffffffffffffff1614610e3e576040517f08c379a0000000000000000000000000000000000000000000000000000000008152600401610e359061394d565b60405180910390fd5b600a543414610e82576040517f08c379a0000000000000000000000000000000000000000000000000000000008152600401610e79906139df565b60405180910390fd5b6000600b600084815260200190815260200160002060040160006101000a81548160ff02191690831515021790555080600b60008481526020019081526020016000206003018190555033600b600084815260200190815260200160002060010160006101000a81548173ffffffffffffffffffffffffffffffffffffffff021916908373ffffffffffffffffffffffffffffffffffffffff16021790555030600b600084815260200190815260200160002060020160006101000a81548173ffffffffffffffffffffffffffffffffffffffff021916908373ffffffffffffffffffffffffffffffffffffffff16021790555060096000815480929190610f89906139ff565b9190505550610f99333084611da7565b5050565b610fb883838360405180602001604052806000815250611500565b505050565b60606000600854905060008060005b8381101561106c573373ffffffffffffffffffffffffffffffffffffffff16600b6000600184610ffc9190613725565b815260200190815260200160002060010160009054906101000a900473ffffffffffffffffffffffffffffffffffffffff1673ffffffffffffffffffffffffffffffffffffffff1603611059576001836110569190613725565b92505b808061106490613788565b915050610fcc565b5060008267ffffffffffffffff8111156110895761108861322f565b5b6040519080825280602002602001820160405280156110c257816020015b6110af612d27565b8152602001906001900390816110a75790505b50905060005b84811015611297573373ffffffffffffffffffffffffffffffffffffffff16600b60006001846110f89190613725565b815260200190815260200160002060010160009054906101000a900473ffffffffffffffffffffffffffffffffffffffff1673ffffffffffffffffffffffffffffffffffffffff16036112845760006001826111549190613725565b90506000600b60008381526020019081526020016000209050806040518060a0016040529081600082015481526020016001820160009054906101000a900473ffffffffffffffffffffffffffffffffffffffff1673ffffffffffffffffffffffffffffffffffffffff1673ffffffffffffffffffffffffffffffffffffffff1681526020016002820160009054906101000a900473ffffffffffffffffffffffffffffffffffffffff1673ffffffffffffffffffffffffffffffffffffffff1673ffffffffffffffffffffffffffffffffffffffff168152602001600382015481526020016004820160009054906101000a900460ff16151515158152505084868151811061126757611266613759565b5b602002602001018190525060018561127f9190613725565b945050505b808061128f90613788565b9150506110c8565b508094505050505090565b60006112ad82611a65565b9050919050565b60008073ffffffffffffffffffffffffffffffffffffffff168273ffffffffffffffffffffffffffffffffffffffff16036113275760006040517f89c62b6400000000000000000000000000000000000000000000000000000000815260040161131e9190612fa9565b60405180910390fd5b600360008373ffffffffffffffffffffffffffffffffffffffff1673ffffffffffffffffffffffffffffffffffffffff168152602001908152602001600020549050919050565b611376611f14565b6113806000611f9b565b565b60008082116113c6576040517f08c379a00000000000000000000000000000000000000000000000000000000081526004016113bd90613a74565b60405180910390fd5b600a54341461140a576040517f08c379a0000000000000000000000000000000000000000000000000000000008152600401611401906139df565b60405180910390fd5b6114148383611d5e565b905092915050565b6000600760009054906101000a900473ffffffffffffffffffffffffffffffffffffffff16905090565b60606001805461145590613691565b80601f016020809104026020016040519081016040528092919081815260200182805461148190613691565b80156114ce5780601f106114a3576101008083540402835291602001916114ce565b820191906000526020600020905b8154815290600101906020018083116114b157829003601f168201915b5050505050905090565b6114ea6114e3611b2a565b8383612061565b5050565b6114f6611f14565b80600a8190555050565b61150b848484610c1a565b61151f611516611b2a565b858585856121d0565b50505050565b6000600b60008381526020019081526020016000206003015490506000600b600084815260200190815260200160002060010160009054906101000a900473ffffffffffffffffffffffffffffffffffffffff1690508134146115bd576040517f08c379a00000000000000000000000000000000000000000000000000000000081526004016115b490613b06565b60405180910390fd5b33600b600085815260200190815260200160002060020160006101000a81548173ffffffffffffffffffffffffffffffffffffffff021916908373ffffffffffffffffffffffffffffffffffffffff1602179055506001600b600085815260200190815260200160002060040160006101000a81548160ff0219169083151502179055506000600b600085815260200190815260200160002060010160006101000a81548173ffffffffffffffffffffffffffffffffffffffff021916908373ffffffffffffffffffffffffffffffffffffffff160217905550600960008154809291906116aa90613788565b91905055506116ba303385611da7565b6116c261141c565b73ffffffffffffffffffffffffffffffffffffffff166108fc600a549081150290604051600060405180830381858888f19350505050158015611709573d6000803e3d6000fd5b508073ffffffffffffffffffffffffffffffffffffffff166108fc349081150290604051600060405180830381858888f19350505050158015611750573d6000803e3d6000fd5b50505050565b606061176182611a65565b50600060066000848152602001908152602001600020805461178290613691565b80601f01602080910402602001604051908101604052809291908181526020018280546117ae90613691565b80156117fb5780601f106117d0576101008083540402835291602001916117fb565b820191906000526020600020905b8154815290600101906020018083116117de57829003601f168201915b50505050509050600061180c612381565b90506000815103611821578192505050611864565b60008251111561185657808260405160200161183e929190613b62565b60405160208183030381529060405292505050611864565b61185f84612398565b925050505b919050565b6000600560008473ffffffffffffffffffffffffffffffffffffffff1673ffffffffffffffffffffffffffffffffffffffff16815260200190815260200160002060008373ffffffffffffffffffffffffffffffffffffffff1673ffffffffffffffffffffffffffffffffffffffff16815260200190815260200160002060009054906101000a900460ff16905092915050565b611905611f14565b600073ffffffffffffffffffffffffffffffffffffffff168173ffffffffffffffffffffffffffffffffffffffff16036119775760006040517f1e4fbdf700000000000000000000000000000000000000000000000000000000815260040161196e9190612fa9565b60405180910390fd5b61198081611f9b565b50565b60007f80ac58cd000000000000000000000000000000000000000000000000000000007bffffffffffffffffffffffffffffffffffffffffffffffffffffffff1916827bffffffffffffffffffffffffffffffffffffffffffffffffffffffff19161480611a4e57507f5b5e139f000000000000000000000000000000000000000000000000000000007bffffffffffffffffffffffffffffffffffffffffffffffffffffffff1916827bffffffffffffffffffffffffffffffffffffffffffffffffffffffff1916145b80611a5e5750611a5d82612401565b5b9050919050565b600080611a718361246b565b9050600073ffffffffffffffffffffffffffffffffffffffff168173ffffffffffffffffffffffffffffffffffffffff1603611ae457826040517f7e273289000000000000000000000000000000000000000000000000000000008152600401611adb91906131b7565b60405180910390fd5b80915050919050565b60006004600083815260200190815260200160002060009054906101000a900473ffffffffffffffffffffffffffffffffffffffff169050919050565b600033905090565b611b3f83838360016124a8565b505050565b600080611b508461246b565b9050600073ffffffffffffffffffffffffffffffffffffffff168373ffffffffffffffffffffffffffffffffffffffff1614611b9257611b9181848661266d565b5b600073ffffffffffffffffffffffffffffffffffffffff168173ffffffffffffffffffffffffffffffffffffffff1614611c2357611bd46000856000806124a8565b6001600360008373ffffffffffffffffffffffffffffffffffffffff1673ffffffffffffffffffffffffffffffffffffffff168152602001908152602001600020600082825403925050819055505b600073ffffffffffffffffffffffffffffffffffffffff168573ffffffffffffffffffffffffffffffffffffffff1614611ca6576001600360008773ffffffffffffffffffffffffffffffffffffffff1673ffffffffffffffffffffffffffffffffffffffff168152602001908152602001600020600082825401925050819055505b846002600086815260200190815260200160002060006101000a81548173ffffffffffffffffffffffffffffffffffffffff021916908373ffffffffffffffffffffffffffffffffffffffff160217905550838573ffffffffffffffffffffffffffffffffffffffff168273ffffffffffffffffffffffffffffffffffffffff167fddf252ad1be2c89b69c2b068fc378daa952ba7f163c4a11628f55a4df523b3ef60405160405180910390a4809150509392505050565b600060086000815480929190611d7390613788565b919050555060006008549050611d893382612731565b611d93818561282a565b611d9d8184612886565b8091505092915050565b600073ffffffffffffffffffffffffffffffffffffffff168273ffffffffffffffffffffffffffffffffffffffff1603611e195760006040517f64a0ae92000000000000000000000000000000000000000000000000000000008152600401611e109190612fa9565b60405180910390fd5b6000611e2783836000611b44565b9050600073ffffffffffffffffffffffffffffffffffffffff168173ffffffffffffffffffffffffffffffffffffffff1603611e9a57816040517f7e273289000000000000000000000000000000000000000000000000000000008152600401611e9191906131b7565b60405180910390fd5b8373ffffffffffffffffffffffffffffffffffffffff168173ffffffffffffffffffffffffffffffffffffffff1614611f0e578382826040517f64283d7b000000000000000000000000000000000000000000000000000000008152600401611f05939291906137d0565b60405180910390fd5b50505050565b611f1c611b2a565b73ffffffffffffffffffffffffffffffffffffffff16611f3a61141c565b73ffffffffffffffffffffffffffffffffffffffff1614611f9957611f5d611b2a565b6040517f118cdaa7000000000000000000000000000000000000000000000000000000008152600401611f909190612fa9565b60405180910390fd5b565b6000600760009054906101000a900473ffffffffffffffffffffffffffffffffffffffff16905081600760006101000a81548173ffffffffffffffffffffffffffffffffffffffff021916908373ffffffffffffffffffffffffffffffffffffffff1602179055508173ffffffffffffffffffffffffffffffffffffffff168173ffffffffffffffffffffffffffffffffffffffff167f8be0079c531659141344cd1fd0a4f28419497f9722a3daafe3b4186f6b6457e060405160405180910390a35050565b600073ffffffffffffffffffffffffffffffffffffffff168273ffffffffffffffffffffffffffffffffffffffff16036120d257816040517f5b08ba180000000000000000000000000000000000000000000000000000000081526004016120c99190612fa9565b60405180910390fd5b80600560008573ffffffffffffffffffffffffffffffffffffffff1673ffffffffffffffffffffffffffffffffffffffff16815260200190815260200160002060008473ffffffffffffffffffffffffffffffffffffffff1673ffffffffffffffffffffffffffffffffffffffff16815260200190815260200160002060006101000a81548160ff0219169083151502179055508173ffffffffffffffffffffffffffffffffffffffff168373ffffffffffffffffffffffffffffffffffffffff167f17307eab39ab6107e8899845ad3d59bd9653f200f220920489ca2b5937696c31836040516121c39190612e38565b60405180910390a3505050565b60008373ffffffffffffffffffffffffffffffffffffffff163b111561237a578273ffffffffffffffffffffffffffffffffffffffff1663150b7a02868685856040518563ffffffff1660e01b815260040161222f9493929190613bdb565b6020604051808303816000875af192505050801561226b57506040513d601f19601f820116820180604052508101906122689190613c3c565b60015b6122ef573d806000811461229b576040519150601f19603f3d011682016040523d82523d6000602084013e6122a0565b606091505b5060008151036122e757836040517f64a0ae920000000000000000000000000000000000000000000000000000000081526004016122de9190612fa9565b60405180910390fd5b805160208201fd5b63150b7a0260e01b7bffffffffffffffffffffffffffffffffffffffffffffffffffffffff1916817bffffffffffffffffffffffffffffffffffffffffffffffffffffffff19161461237857836040517f64a0ae9200000000000000000000000000000000000000000000000000000000815260040161236f9190612fa9565b60405180910390fd5b505b5050505050565b606060405180602001604052806000815250905090565b60606123a382611a65565b5060006123ae612381565b905060008151116123ce57604051806020016040528060008152506123f9565b806123d884612a45565b6040516020016123e9929190613b62565b6040516020818303038152906040525b915050919050565b60007f01ffc9a7000000000000000000000000000000000000000000000000000000007bffffffffffffffffffffffffffffffffffffffffffffffffffffffff1916827bffffffffffffffffffffffffffffffffffffffffffffffffffffffff1916149050919050565b60006002600083815260200190815260200160002060009054906101000a900473ffffffffffffffffffffffffffffffffffffffff169050919050565b80806124e15750600073ffffffffffffffffffffffffffffffffffffffff168273ffffffffffffffffffffffffffffffffffffffff1614155b156126155760006124f184611a65565b9050600073ffffffffffffffffffffffffffffffffffffffff168373ffffffffffffffffffffffffffffffffffffffff161415801561255c57508273ffffffffffffffffffffffffffffffffffffffff168173ffffffffffffffffffffffffffffffffffffffff1614155b801561256f575061256d8184611869565b155b156125b157826040517fa9fbf51f0000000000000000000000000000000000000000000000000000000081526004016125a89190612fa9565b60405180910390fd5b811561261357838573ffffffffffffffffffffffffffffffffffffffff168273ffffffffffffffffffffffffffffffffffffffff167f8c5be1e5ebec7d5bd14f71427d1e84f3dd0314c0f7b2291e5b200ac8c7c3b92560405160405180910390a45b505b836004600085815260200190815260200160002060006101000a81548173ffffffffffffffffffffffffffffffffffffffff021916908373ffffffffffffffffffffffffffffffffffffffff16021790555050505050565b612678838383612b13565b61272c57600073ffffffffffffffffffffffffffffffffffffffff168373ffffffffffffffffffffffffffffffffffffffff16036126ed57806040517f7e2732890000000000000000000000000000000000000000000000000000000081526004016126e491906131b7565b60405180910390fd5b81816040517f177e802f000000000000000000000000000000000000000000000000000000008152600401612723929190613c69565b60405180910390fd5b505050565b600073ffffffffffffffffffffffffffffffffffffffff168273ffffffffffffffffffffffffffffffffffffffff16036127a35760006040517f64a0ae9200000000000000000000000000000000000000000000000000000000815260040161279a9190612fa9565b60405180910390fd5b60006127b183836000611b44565b9050600073ffffffffffffffffffffffffffffffffffffffff168173ffffffffffffffffffffffffffffffffffffffff16146128255760006040517f73c6ac6e00000000000000000000000000000000000000000000000000000000815260040161281c9190612fa9565b60405180910390fd5b505050565b8060066000848152602001908152602001600020908161284a9190613e3e565b507ff8e1a15aba9398e019f0b49df1a4fde98ee17ae345cb5f6b5e2c27f5033e8ce78260405161287a91906131b7565b60405180910390a15050565b600081116128c9576040517f08c379a00000000000000000000000000000000000000000000000000000000081526004016128c090613a74565b60405180910390fd5b6040518060a001604052808381526020013373ffffffffffffffffffffffffffffffffffffffff1681526020013073ffffffffffffffffffffffffffffffffffffffff16815260200182815260200160001515815250600b60008481526020019081526020016000206000820151816000015560208201518160010160006101000a81548173ffffffffffffffffffffffffffffffffffffffff021916908373ffffffffffffffffffffffffffffffffffffffff16021790555060408201518160020160006101000a81548173ffffffffffffffffffffffffffffffffffffffff021916908373ffffffffffffffffffffffffffffffffffffffff1602179055506060820151816003015560808201518160040160006101000a81548160ff021916908315150217905550905050612a02333084611da7565b817ff8e628343cdd4828a05207e4919416cafb629ff3ab1c6f524ac0110e3ef470063330846000604051612a399493929190613f10565b60405180910390a25050565b606060006001612a5484612bd4565b01905060008167ffffffffffffffff811115612a7357612a7261322f565b5b6040519080825280601f01601f191660200182016040528015612aa55781602001600182028036833780820191505090505b509050600082602083010190505b600115612b08578080600190039150507f3031323334353637383961626364656600000000000000000000000000000000600a86061a8153600a8581612afc57612afb613f55565b5b04945060008503612ab3575b819350505050919050565b60008073ffffffffffffffffffffffffffffffffffffffff168373ffffffffffffffffffffffffffffffffffffffff1614158015612bcb57508273ffffffffffffffffffffffffffffffffffffffff168473ffffffffffffffffffffffffffffffffffffffff161480612b8c5750612b8b8484611869565b5b80612bca57508273ffffffffffffffffffffffffffffffffffffffff16612bb283611aed565b73ffffffffffffffffffffffffffffffffffffffff16145b5b90509392505050565b600080600090507a184f03e93ff9f4daa797ed6e38ed64bf6a1f0100000000000000008310612c32577a184f03e93ff9f4daa797ed6e38ed64bf6a1f0100000000000000008381612c2857612c27613f55565b5b0492506040810190505b6d04ee2d6d415b85acef81000000008310612c6f576d04ee2d6d415b85acef81000000008381612c6557612c64613f55565b5b0492506020810190505b662386f26fc100008310612c9e57662386f26fc100008381612c9457612c93613f55565b5b0492506010810190505b6305f5e1008310612cc7576305f5e1008381612cbd57612cbc613f55565b5b0492506008810190505b6127108310612cec576127108381612ce257612ce1613f55565b5b0492506004810190505b60648310612d0f5760648381612d0557612d04613f55565b5b0492506002810190505b600a8310612d1e576001810190505b80915050919050565b6040518060a0016040528060008152602001600073ffffffffffffffffffffffffffffffffffffffff168152602001600073ffffffffffffffffffffffffffffffffffffffff168152602001600081526020016000151581525090565b6000604051905090565b600080fd5b600080fd5b60007fffffffff0000000000000000000000000000000000000000000000000000000082169050919050565b612dcd81612d98565b8114612dd857600080fd5b50565b600081359050612dea81612dc4565b92915050565b600060208284031215612e0657612e05612d8e565b5b6000612e1484828501612ddb565b91505092915050565b60008115159050919050565b612e3281612e1d565b82525050565b6000602082019050612e4d6000830184612e29565b92915050565b600081519050919050565b600082825260208201905092915050565b60005b83811015612e8d578082015181840152602081019050612e72565b60008484015250505050565b6000601f19601f8301169050919050565b6000612eb582612e53565b612ebf8185612e5e565b9350612ecf818560208601612e6f565b612ed881612e99565b840191505092915050565b60006020820190508181036000830152612efd8184612eaa565b905092915050565b6000819050919050565b612f1881612f05565b8114612f2357600080fd5b50565b600081359050612f3581612f0f565b92915050565b600060208284031215612f5157612f50612d8e565b5b6000612f5f84828501612f26565b91505092915050565b600073ffffffffffffffffffffffffffffffffffffffff82169050919050565b6000612f9382612f68565b9050919050565b612fa381612f88565b82525050565b6000602082019050612fbe6000830184612f9a565b92915050565b612fcd81612f88565b8114612fd857600080fd5b50565b600081359050612fea81612fc4565b92915050565b6000806040838503121561300757613006612d8e565b5b600061301585828601612fdb565b925050602061302685828601612f26565b9150509250929050565b600081519050919050565b600082825260208201905092915050565b6000819050602082019050919050565b61306581612f05565b82525050565b600061307682612f68565b9050919050565b6130868161306b565b82525050565b61309581612e1d565b82525050565b60a0820160008201516130b1600085018261305c565b5060208201516130c4602085018261307d565b5060408201516130d7604085018261307d565b5060608201516130ea606085018261305c565b5060808201516130fd608085018261308c565b50505050565b600061310f838361309b565b60a08301905092915050565b6000602082019050919050565b600061313382613030565b61313d818561303b565b93506131488361304c565b8060005b838110156131795781516131608882613103565b975061316b8361311b565b92505060018101905061314c565b5085935050505092915050565b600060208201905081810360008301526131a08184613128565b905092915050565b6131b181612f05565b82525050565b60006020820190506131cc60008301846131a8565b92915050565b6000806000606084860312156131eb576131ea612d8e565b5b60006131f986828701612fdb565b935050602061320a86828701612fdb565b925050604061321b86828701612f26565b9150509250925092565b600080fd5b600080fd5b7f4e487b7100000000000000000000000000000000000000000000000000000000600052604160045260246000fd5b61326782612e99565b810181811067ffffffffffffffff821117156132865761328561322f565b5b80604052505050565b6000613299612d84565b90506132a5828261325e565b919050565b600067ffffffffffffffff8211156132c5576132c461322f565b5b6132ce82612e99565b9050602081019050919050565b82818337600083830152505050565b60006132fd6132f8846132aa565b61328f565b9050828152602081018484840111156133195761331861322a565b5b6133248482856132db565b509392505050565b600082601f83011261334157613340613225565b5b81356133518482602086016132ea565b91505092915050565b60008060006060848603121561337357613372612d8e565b5b600084013567ffffffffffffffff81111561339157613390612d93565b5b61339d8682870161332c565b93505060206133ae86828701612f26565b92505060406133bf86828701612f26565b9150509250925092565b600080604083850312156133e0576133df612d8e565b5b60006133ee85828601612f26565b92505060206133ff85828601612f26565b9150509250929050565b60006020828403121561341f5761341e612d8e565b5b600061342d84828501612fdb565b91505092915050565b6000806040838503121561344d5761344c612d8e565b5b600083013567ffffffffffffffff81111561346b5761346a612d93565b5b6134778582860161332c565b925050602061348885828601612f26565b9150509250929050565b61349b81612e1d565b81146134a657600080fd5b50565b6000813590506134b881613492565b92915050565b600080604083850312156134d5576134d4612d8e565b5b60006134e385828601612fdb565b92505060206134f4858286016134a9565b9150509250929050565b600067ffffffffffffffff8211156135195761351861322f565b5b61352282612e99565b9050602081019050919050565b600061354261353d846134fe565b61328f565b90508281526020810184848401111561355e5761355d61322a565b5b6135698482856132db565b509392505050565b600082601f83011261358657613585613225565b5b813561359684826020860161352f565b91505092915050565b600080600080608085870312156135b9576135b8612d8e565b5b60006135c787828801612fdb565b94505060206135d887828801612fdb565b93505060406135e987828801612f26565b925050606085013567ffffffffffffffff81111561360a57613609612d93565b5b61361687828801613571565b91505092959194509250565b6000806040838503121561363957613638612d8e565b5b600061364785828601612fdb565b925050602061365885828601612fdb565b9150509250929050565b7f4e487b7100000000000000000000000000000000000000000000000000000000600052602260045260246000fd5b600060028204905060018216806136a957607f821691505b6020821081036136bc576136bb613662565b5b50919050565b7f4e487b7100000000000000000000000000000000000000000000000000000000600052601160045260246000fd5b60006136fc82612f05565b915061370783612f05565b925082820390508181111561371f5761371e6136c2565b5b92915050565b600061373082612f05565b915061373b83612f05565b9250828201905080821115613753576137526136c2565b5b92915050565b7f4e487b7100000000000000000000000000000000000000000000000000000000600052603260045260246000fd5b600061379382612f05565b91507fffffffffffffffffffffffffffffffffffffffffffffffffffffffffffffffff82036137c5576137c46136c2565b5b600182019050919050565b60006060820190506137e56000830186612f9a565b6137f260208301856131a8565b6137ff6040830184612f9a565b949350505050565b600061381282612f05565b915061381d83612f05565b925082820261382b81612f05565b91508282048414831517613842576138416136c2565b5b5092915050565b7f5072696365206d75737420626520657175616c20746f206c697374696e67207060008201527f72696365202a20737570706c7900000000000000000000000000000000000000602082015250565b60006138a5602d83612e5e565b91506138b082613849565b604082019050919050565b600060208201905081810360008301526138d481613898565b9050919050565b7f4f6e6c79206974656d206f776e65722063616e20706572666f726d207468697360008201527f206f7065726174696f6e00000000000000000000000000000000000000000000602082015250565b6000613937602a83612e5e565b9150613942826138db565b604082019050919050565b600060208201905081810360008301526139668161392a565b9050919050565b7f5072696365206d75737420626520657175616c20746f206c697374696e67207060008201527f7269636500000000000000000000000000000000000000000000000000000000602082015250565b60006139c9602483612e5e565b91506139d48261396d565b604082019050919050565b600060208201905081810360008301526139f8816139bc565b9050919050565b6000613a0a82612f05565b915060008203613a1d57613a1c6136c2565b5b600182039050919050565b7f5072696365206d757374206265206174206c6561737420312077656900000000600082015250565b6000613a5e601c83612e5e565b9150613a6982613a28565b602082019050919050565b60006020820190508181036000830152613a8d81613a51565b9050919050565b7f506c65617365207375626d6974207468652061736b696e67207072696365206960008201527f6e206f7264657220746f20636f6d706c65746520746865207075726368617365602082015250565b6000613af0604083612e5e565b9150613afb82613a94565b604082019050919050565b60006020820190508181036000830152613b1f81613ae3565b9050919050565b600081905092915050565b6000613b3c82612e53565b613b468185613b26565b9350613b56818560208601612e6f565b80840191505092915050565b6000613b6e8285613b31565b9150613b7a8284613b31565b91508190509392505050565b600081519050919050565b600082825260208201905092915050565b6000613bad82613b86565b613bb78185613b91565b9350613bc7818560208601612e6f565b613bd081612e99565b840191505092915050565b6000608082019050613bf06000830187612f9a565b613bfd6020830186612f9a565b613c0a60408301856131a8565b8181036060830152613c1c8184613ba2565b905095945050505050565b600081519050613c3681612dc4565b92915050565b600060208284031215613c5257613c51612d8e565b5b6000613c6084828501613c27565b91505092915050565b6000604082019050613c7e6000830185612f9a565b613c8b60208301846131a8565b9392505050565b60008190508160005260206000209050919050565b60006020601f8301049050919050565b600082821b905092915050565b600060088302613cf47fffffffffffffffffffffffffffffffffffffffffffffffffffffffffffffffff82613cb7565b613cfe8683613cb7565b95508019841693508086168417925050509392505050565b6000819050919050565b6000613d3b613d36613d3184612f05565b613d16565b612f05565b9050919050565b6000819050919050565b613d5583613d20565b613d69613d6182613d42565b848454613cc4565b825550505050565b600090565b613d7e613d71565b613d89818484613d4c565b505050565b5b81811015613dad57613da2600082613d76565b600181019050613d8f565b5050565b601f821115613df257613dc381613c92565b613dcc84613ca7565b81016020851015613ddb578190505b613def613de785613ca7565b830182613d8e565b50505b505050565b600082821c905092915050565b6000613e1560001984600802613df7565b1980831691505092915050565b6000613e2e8383613e04565b9150826002028217905092915050565b613e4782612e53565b67ffffffffffffffff811115613e6057613e5f61322f565b5b613e6a8254613691565b613e75828285613db1565b600060209050601f831160018114613ea85760008415613e96578287015190505b613ea08582613e22565b865550613f08565b601f198416613eb686613c92565b60005b82811015613ede57848901518255600182019150602085019450602081019050613eb9565b86831015613efb5784890151613ef7601f891682613e04565b8355505b6001600288020188555050505b505050505050565b6000608082019050613f256000830187612f9a565b613f326020830186612f9a565b613f3f60408301856131a8565b613f4c6060830184612e29565b95945050505050565b7f4e487b7100000000000000000000000000000000000000000000000000000000600052601260045260246000fdfea26469706673582212207bc16786fc576543b024e5877b23630d9893b5b53792d01af550690c77a865ec64736f6c63430008140033",
  "linkReferences": {},
  "deployedLinkReferences": {}
}